:100000000C9463000C948B000C948B000C94D00423
:100010000C94D0040C94D0040C948B000C948B00A2
:100020000C948B000C948B000C948B000C948B0024
:100030000C948B000C948B000C948B000C948B0014
:100040000C942E040C948B000C949E040C94780455
:100050000C948B000C948B000C948B000C948B00F4
:100060000C948B000C948B000000000024002700EF
:100070002A0000000008000201000003040700003D
:1000800000000000000000000000230026002900FE
:1000900000000000250028002B00040404040404D0
:1000A0000404020202020202030303030303010227
:1000B00004081020408001020408102001020408F6
:1000C00010204A05420711241FBECFEFD8E0DEBF43
:1000D000CDBF11E0A0E0B1E0E0E8FFE002C0059094
:1000E0000D92AA38B107D9F722E0AAE8B1E001C021
:1000F0001D92A539B207E1F710E0C2E6D0E004C0D6
:100100002197FE010E94A807C136D107C9F70E94B6
:10011000F5050C94B3070C94000090E0FC01EE5838
:10012000FF4F2491FC01E255FF4F3491FC01E6564C
:10013000FF4FE491EE2309F43CC0222339F1233030
:1001400091F038F42130A9F0223001F584B58F7D8B
:1001500012C0273091F02830A1F02430B9F48091FA
:1001600080008F7D03C0809180008F778093800016
:100170000DC084B58F7784BD09C08091B0008F77A2
:1001800003C08091B0008F7D8093B000F0E0EE0F4F
:10019000FF1FE057FF4FA591B4919FB7F8946111ED
:1001A00004C08C913095382302C0EC913E2B3C93D7
:1001B0009FBF0895CF93DF9390E0FC01E255FF4F7E
:1001C0002491FC01E656FF4F8491882361F190E071
:1001D000880F991FFC01E859FF4FC591D491FC018C
:1001E000E057FF4FA591B491611109C09FB7F894F2
:1001F0008881209582238883EC912E230BC0623066
:1002000061F49FB7F8948881322F309583238883D7
:10021000EC912E2B2C939FBF06C08FB7F894E881EA
:100220002E2B28838FBFDF91CF9108953FB7F8948D
:100230008091D3019091D401A091D501B091D601C4
:1002400026B5A89B05C02F3F19F00196A11DB11D31
:100250003FBFBA2FA92F982F8827820F911DA11D6C
:10026000B11DBC01CD0142E0660F771F881F991FA9
:100270004A95D1F708958F929F92AF92BF92CF92F5
:10028000DF92EF92FF926B017C010E9416014B01FD
:100290005C01C114D104E104F104F1F00E941601E3
:1002A000DC01CB0188199909AA09BB09883E934052
:1002B000A105B10570F321E0C21AD108E108F108E7
:1002C00088EE880E83E0981EA11CB11CC114D104D5
:1002D000E104F10419F7DDCFFF90EF90DF90CF90AC
:1002E000BF90AF909F908F900895CF92DF92EF9242
:1002F000FF920F931F93CF93DF936C017A018B01D1
:10030000C0E0D0E0CE15DF0581F0D8016D918D0100
:10031000D601ED91FC910190F081E02DC601099587
:10032000892B11F02196EECF7E01C701DF91CF918D
:100330001F910F91FF90EF90DF90CF900895FC01F7
:10034000538D448D252F30E0842F90E0821B930B3A
:10035000541710F0CF96089501970895FC01918DE0
:10036000828D981761F0828DDF01A80FB11D5D9617
:100370008C91928D9F5F9F73928F90E008958FEF85
:100380009FEF0895FC01918D828D981731F0828D39
:10039000E80FF11D858D90E008958FEF9FEF089590
:1003A000FC01918D228D892F90E0805C9F4F821BF4
:1003B00091098F739927089589ED91E00E94D001EA
:1003C00021E0892B09F420E0822F0895FC01848D1F
:1003D000DF01A80FB11DA35ABF4F2C91848D90E06F
:1003E00001968F739927848FA689B7892C93A0894A
:1003F000B1898C91837080648C93938D848D9813D4
:1004000006C00288F389E02D80818F7D8083089566
:10041000EF92FF920F931F93CF93DF93EC0181E054
:10042000888F9B8D8C8D981305C0E889F989808110
:1004300085FD26C0F62E0B8D10E00F5F1F4F0F734A
:100440001127E02E8C8DE8120CC00FB607FCFACFF6
:10045000E889F989808185FFF5CFCE010E94E60108
:10046000F1CF8B8DFE01E80FF11DE35AFF4FF082B3
:100470009FB7F8940B8FEA89FB89808180620AC05C
:100480009FB7F894EE89FF896083E889F9898081B4
:100490008370806480839FBF81E090E0DF91CF9183
:1004A0001F910F91FF90EF900895CF93DF93EC0190
:1004B000888D8823C9F0EA89FB89808185FD05C084
:1004C000A889B9898C9186FD0FC00FB607FCF5CFBE
:1004D000808185FFF2CFA889B9898C9185FFEDCF06
:1004E000CE010E94E601E7CFDF91CF91089580E031
:1004F00090E0892B29F00E94DC0181110C9400000E
:1005000008952091CC013091CD012817390771F45D
:100510009091CA018091CB01981741F0E091CA01F6
:10052000F0E0E657FE4F808190E008958FEF9FEF57
:10053000089508951F93CF93DF93DC015C968D910E
:100540009C915D97009739F421E030E013963C933D
:100550002E9312973BC05196ED91FC915297509675
:100560002C915097322F30951FB75E964C915E9725
:10057000742F727041FD6095F8944081772311F0DB
:10058000422B01C043234083EC012197F1F748E05F
:10059000508160FF02C0522B01C053235083EC01F5
:1005A0002197F1F76695415099F78081772319F0EB
:1005B0008323808302C0282B20831FBF5C968D91EC
:1005C0009C915D970197F1F781E090E0DF91CF91E9
:1005D0001F9108952091CC013091CD012817390742
:1005E00071F48091CB012091CA0190E0805C9F4F13
:1005F000821B910960E470E00E945E07089580E02C
:1006000090E008952091CC013091CD012817390751
:10061000B9F49091CA018091CB01981789F0E091CB
:10062000CA01F0E0E657FE4F80812091CA0130E018
:100630002F5F3F4F2F7333272093CA0190E0089517
:100640008FEF9FEF0895089580E090E008950E9455
:10065000AE076115710579F0FB0101900020E9F703
:100660003197AF01461B570BDC01ED91FC910280E5
:10067000F381E02D099480E090E00895CF93DF931B
:10068000BC0189ED91E00E942903EC0164E271E074
:1006900089ED91E00E9429038C0F9D1FDF91CF917E
:1006A00008958F929F92AF92BF920F931F93CF9313
:1006B000DF93CDB7DEB7A1970FB6F894DEBF0FBEBC
:1006C000CDBF19A2423008F44AE08E010F5D1F4FE2
:1006D000842E912CA12CB12CA50194010E947207AB
:1006E000E62FB901CA0101501109EA3014F4E05DA6
:1006F00001C0E95CD801EC93232B242B252B61F757
:10070000B80186E792E00E942903A1960FB6F894FB
:10071000DEBF0FBECDBFDF91CF911F910F91BF9074
:10072000AF909F908F900895CF92DF92EF92FF92BB
:100730000F931F93CF93DF93CDB7DEB7C751D1404F
:100740000FB6F894DEBF0FBECDBFFE01EF5FFE4FC8
:100750002AE07F014AEF50E0215058F0CA01022EF2
:1007600002C0959587950A94E2F78170805D819328
:10077000F3CFF701128667E271E089ED91E00E9404
:100780002903C7010E943E03D7011296FE01E45FD0
:10079000FE4F82E06F018F5F9D9191938B30D9F76F
:1007A0008E010B5E1E4FF7018081F8018083F701F7
:1007B0008181F80181838BE391E00E943E03112740
:1007C000005D1F4FFE01319628E07F01215058F057
:1007D000C801022E02C0969587950A94E2F78170AF
:1007E000805D8193F3CF19866CE471E089ED91E02F
:1007F0000E942903C7010E943E0362E571E089ED72
:1008000091E00E942903C6010E943E0360E083E05C
:100810000E948D006091D80170E080E090E042E09D
:100820000E94510361E083E00E948D006091D70136
:1008300070E080E090E042E00E945103C95EDE4F2C
:100840000FB6F894DEBF0FBECDBFDF91CF911F91E1
:100850000F91FF90EF90DF90CF9008951F920F922D
:100860000FB60F9211242F933F938F939F93AF93C3
:10087000BF938091CF019091D001A091D101B0910F
:10088000D2013091CE0123E0230F2D3720F40196C1
:10089000A11DB11D05C026E8230F0296A11DB11DA3
:1008A0002093CE018093CF019093D001A093D101EA
:1008B000B093D2018091D3019091D401A091D50140
:1008C000B091D6010196A11DB11D8093D3019093E3
:1008D000D401A093D501B093D601BF91AF919F9160
:1008E0008F913F912F910F900FBE0F901F901895F1
:1008F0001F920F920FB60F9211242F933F934F9395
:100900005F936F937F938F939F93AF93BF93EF9377
:10091000FF9389ED91E00E94E601FF91EF91BF9175
:10092000AF919F918F917F916F915F914F913F9187
:100930002F910F900FBE0F901F9018951F920F923E
:100940000FB60F9211242F938F939F93EF93FF93E2
:10095000E091E901F091EA018081E091EF01F091ED
:10096000F00182FD12C090818091F2018F5F8F7340
:100970002091F301821751F0E091F201F0E0E7528B
:10098000FE4F958F8093F20101C08081FF91EF911E
:100990009F918F912F910F900FBE0F901F901895E0
:1009A0001F920F920FB60F9211242F933F934F93E4
:1009B0005F936F937F938F939F93AF93BF93EF93C7
:1009C000FF93E091CC01F091CD01309709F451C033
:1009D000968DA685B785858591FF04C09C91892356
:1009E00029F447C09C91892309F043C0A389B489A5
:1009F0009C918589809589238C9386899789019715
:100A0000F1F7608D718DA685B785558538E020E0BA
:100A1000CB010197F1F7822F90E095958795282FCC
:100A20004C91452309F02068315091F7868D81FD66
:100A300020958091CB0190E001968F73992730919A
:100A4000CA01381749F0A091CB01B0E0A657BE4FBC
:100A50002C938093CB0103C0868D8160868F828D1D
:100A6000938D0197F1F7A389B4899C918589892B8E
:100A70008C93FF91EF91BF91AF919F918F917F9157
:100A80006F915F914F913F912F910F900FBE0F90FB
:100A90001F9018951092DC011092DB0188EE93E014
:100AA000A0E0B0E08093DD019093DE01A093DF0130
:100AB000B093E00124E031E03093DA012093D901D2
:100AC00025EC30E03093E6012093E50124EC30E0A2
:100AD0003093E8012093E70120EC30E03093EA0105
:100AE0002093E90121EC30E03093EC012093EB01FD
:100AF00022EC30E03093EE012093ED0126EC30E063
:100B00003093F0012093EF011092F2011092F30163
:100B10001092F4011092F50110927902109278026D
:100B200080937A0290937B02A0937C02B0937D0223
:100B300086E191E0909377028093760210928D0285
:100B400010928C0210928F0210928E0210929102DB
:100B5000109290021092930210929202609194026D
:100B60006E7F6D7F609394026695617081E0682767
:100B70008BE00E948D0061E08BE00E94DA00E9EBDF
:100B8000F0E0E491E0938602E5EAF0E0E491F0E041
:100B9000EE0FFF1FE057FF4F8591949190938802CD
:100BA0008093870260E08AE00E94DA0080919402DC
:100BB00081FD04C061E08AE00E948D008AE080939C
:100BC0008202E8EBF0E0E491E0938302E4EAF0E0F3
:100BD000E491F0E0EE0FFF1FEA57FF4F85919491EB
:100BE00090938502809384020895789484B58260FE
:100BF00084BD84B5816084BD85B5826085BD85B5C1
:100C0000816085BD80916E00816080936E0010923E
:100C100081008091810082608093810080918100B9
:100C2000816080938100809180008160809380004A
:100C30008091B10084608093B1008091B0008160A8
:100C40008093B00080917A00846080937A008091D4
:100C50007A00826080937A0080917A00816080932C
:100C60007A0080917A00806880937A001092C100A7
:100C7000E091E901F091EA0182E08083E091E501F1
:100C8000F091E6011082E091E701F091E8018FEC2C
:100C900080831092F101E091ED01F091EE0186E088
:100CA0008083E091EB01F091EC0180818061808391
:100CB000E091EB01F091EC01808188608083E0910C
:100CC000EB01F091EC01808180688083E091EB0181
:100CD000F091EC0180818F7D8083109291021092BF
:100CE000900210928F0210928E0210928D0210923A
:100CF0008C028DE991E090939302809392029091FF
:100D00008202963108F058C02DEB30E030938D020E
:100D100020938C022BE931E030938F0220938E02D6
:100D20002CE231E0309391022093900240916800D0
:100D3000983058F031E09E3008F430E021E0822F06
:100D400001C0880F3A95EAF701C084E0842B8093B4
:100D50006800983038F09E3040F0963148F020E03E
:100D600030E008C02DE630E005C02BE630E002C0E0
:100D70002CE630E030938A0220938902983030F4D8
:100D800081E001C0880F9A95EAF70EC0292F30E064
:100D90009E3018F42850310902C02E50310981E0EC
:100DA00001C0880F2A95EAF780938B028091920206
:100DB000909193020197F1F78091900290919102A6
:100DC000892B49F1E091CC01F091CD0182E0E63729
:100DD000F80709F1309739F0A389B4899C91858986
:100DE000809589238C93809194028E7F80939402C6
:100DF0001092CB011092CA0186E792E09093CD0148
:100E00008093CC01E0918902F0918A0290818091D7
:100E10008B02892B808361E083E00E94DA001092CC
:100E2000D8011092D70160E083E00E948D0042E07B
:100E300060E070E0CB010E94510361E083E00E941A
:100E40008D006091D70170E080E090E042E00E9468
:100E5000510388E591E00E943E038EE691E00E94F6
:100E60003E0360ED77E080E090E00E943B010E944D
:100E700094036CEB72E080E090E00E943B010E94E2
:100E80007702F5CF86E191E0909377028093760226
:100E90008091CC019091CD018657924071F4E09100
:100EA0008902F0918A02908180918B02809589233A
:100EB00080831092CD011092CC01089597FB072EEC
:100EC00016F4009407D077FD09D00E94940707FC20
:100ED00005D03EF4909581959F4F0895709561954A
:100EE0007F4F0895A1E21A2EAA1BBB1BFD010DC066
:100EF000AA1FBB1FEE1FFF1FA217B307E407F507CA
:100F000020F0A21BB30BE40BF50B661F771F881FA5
:100F1000991F1A9469F760957095809590959B013B
:100F2000AC01BD01CF010895AA1BBB1B51E107C055
:100F3000AA1FBB1FA617B70710F0A61BB70B881F69
:100F4000991F5A95A9F780959095BC01CD010895F8
:100F5000EE0FFF1F0590F491E02D099481E090E0E1
:100F6000F8940C94B30710E0C2E6D0E004C0FE0190
:100F70000E94A8072196C336D107C9F7F894FFCF7E
:100F800000000000080275019F015502D001AE016A
:100F9000C201000000009A02750124039902EA02CE
:100FA000020381020D0A0042696E617279206F6648
:100FB0002063616D6D616E643A2000596F75722017
:100FC0006F75747075742069732041004D53422011
:100FD0003D004C534D203D00504420616E64204C38
:100FE0004441432073657420746F203120004E6F9C
:100FF000726D616C206F7065726174696F6E2069CB
:0A10000073204163746976650000F7
:107E0000112484B714BE81FFF0D085E080938100F7
:107E100082E08093C00088E18093C10086E0809377
:107E2000C20080E18093C4008EE0C9D0259A86E02C
:107E300020E33CEF91E0309385002093840096BBD3
:107E4000B09BFECF1D9AA8958150A9F7CC24DD24C4
:107E500088248394B5E0AB2EA1E19A2EF3E0BF2EE7
:107E6000A2D0813461F49FD0082FAFD0023811F036
:107E7000013811F484E001C083E08DD089C08234E0
:107E800011F484E103C0853419F485E0A6D080C0E4
:107E9000853579F488D0E82EFF2485D0082F10E0AE
:107EA000102F00270E291F29000F111F8ED06801E7
:107EB0006FC0863521F484E090D080E0DECF843638
:107EC00009F040C070D06FD0082F6DD080E0C81688
:107ED00080E7D80618F4F601B7BEE895C0E0D1E017
:107EE00062D089930C17E1F7F0E0CF16F0E7DF06D8
:107EF00018F0F601B7BEE89568D007B600FCFDCFD4
:107F0000A601A0E0B1E02C9130E011968C91119780
:107F100090E0982F8827822B932B1296FA010C0160
:107F200087BEE89511244E5F5F4FF1E0A038BF0790
:107F300051F7F601A7BEE89507B600FCFDCF97BE46
:107F4000E89526C08437B1F42ED02DD0F82E2BD052
:107F50003CD0F601EF2C8F010F5F1F4F84911BD097
:107F6000EA94F801C1F70894C11CD11CFA94CF0C13
:107F7000D11C0EC0853739F428D08EE10CD085E9AC
:107F80000AD08FE07ACF813511F488E018D01DD067
:107F900080E101D065CF982F8091C00085FFFCCF94
:107FA0009093C60008958091C00087FFFCCF809118
:107FB000C00084FD01C0A8958091C6000895E0E648
:107FC000F0E098E1908380830895EDDF803219F02E
:107FD00088E0F5DFFFCF84E1DECF1F93182FE3DFCA
:107FE0001150E9F7F2DF1F91089580E0E8DFEE27F6
:047FF000FF270994CA
:027FFE00040479
:0400000300007E007B
:00000001FF
